:020000040800F2
:100000000050002025A40008C1A40008C1A40008D5
:10001000C1A40008C1A40008C1A400080000000099
:10002000000000000000000000000000C1A4000863
:10003000C1A4000800000000C1A40008056D00086C
:10004000C1A40008C1A40008C1A40008C1A40008FC
:10005000C1A40008C1A40008C1A40008C1A40008EC
:10006000C1A40008C1A40008C1A40008C1A40008DC
:10007000C1A40008C1A4000881720008C1A400083E
:10008000C1A40008C1A40008C1A40008C1A40008BC
:10009000C1A40008C1A40008C1A40008C1A40008AC
:1000A000C1A40008C1A40008C1A400087D74000810
:1000B00089740008917400089D7400087B6700082B
:1000C000376800087967000835680008C1A400088F
:1000D000C1A40008B1720008C1A40008C1A40008AE
:1000E000A9750008C1A40008C1A400080000000010
:1000F0000000000000000000000000000000000000
:0C01000000000000000000005FF808F1A3
:100110000F4B1A6842F001021A6059680D4A0A40F2
:100120005A601A6822F0847222F480321A601A68C7
:1001300022F480221A605A6822F4FE025A604FF4B8
:100140001F029A60044B4FF000629A60704700BF34
:10015000001002400000FFF800ED00E01349144BCE
:100160004A6802F00C02042A03D0082A03D0114A7C
:1001700012E05A6810E04A684868C2F38342C0033C
:1001800002F1020201D40C4805E0486810F4003F77
:10019000586818BF400842431A604A68C2F3031205
:1001A0001A44117A1A68CA401A6070470010024057
:1001B0000000002000127A0000093D001FB5002356
:1001C0000093019302934FF4E0130393504B1A688A
:1001D00042F480321A609A6942F010029A611A68F9
:1001E00002F400320192009A01320092019A1AB987
:1001F000009AB2F5A06FF2D11A68454C12F40032A1
:1002000001D0022215E0216841F001012160009235
:100210001A6802F002020192009A01320092019AD9
:100220001AB9009AB2F5A06FF2D11A68910739D5C0
:1002300001220292374A384C116841F010011160D6
:10024000116821F003011160116841F00201116091
:100250005A685A605A685A605A6842F480625A6012
:100260002E4A1168043A21F0704151602C496160B6
:10027000596821F47C115960516841F00041516086
:10028000D16821F40041D1609268120449BF254A27
:100290004FF4E01262604FF480120392029A012A36
:1002A00001D117E0FEE7022A18D168B1039AB2F52E
:1002B000801F02D14FF4A01205E0039AB2F5E01FAF
:1002C00002D14FF40012039203995A680A4342F490
:1002D000803202E05A6842F460125A601A6842F0B2
:1002E00080721A6019680A4A8901FBD5516821F0A9
:1002F00003015160516841F0020151605A6802F0F7
:100300000C02082AFAD1FFF729FF04B010BD00BF84
:1003100000100240002002400000002004100140B4
:1003200000127A00001BB70040F0BF60024B40F49F
:100330000030D860704700BF00ED00E0C27810B513
:1003400003780AB3164A03F16043D1684278C9437F
:10035000C1F30221C1F1040402FA04F40F22CA40DD
:10036000817803F561430A4022431201D2B283F837
:10037000002303780122590903F01F0302FA03F353
:10038000084A42F8213010BD5A09012103F01F0329
:1003900001FA03F30349203241F8223010BD00BFB7
:1003A00000ED00E000E100E021F0604121F07F017C
:1003B000014B08439860704700ED00E0044B1A6958
:1003C00009B1104301E022EA00001861704700BF44
:1003D00000ED00E0044B04281A680CBF42F0040250
:1003E00022F004021A60704710E000E04FF6FE733E
:1003F0000268134003600023036043608360C360AE
:10040000284B984201D1284A27E0284B984201D135
:10041000254A2AE0264B984201D1234A2DE0254B5C
:10042000984201D1204A30E0234B984201D11E4A24
:1004300033E0224B984204D11B4A536843F47003C3
:100440002EE01F4B984204D1174A536843F0706363
:1004500026E01C4B984204D11B4A536843F00F031B
:100460001EE01A4B984204D1174A536843F0F00338
:1004700016E0174B984204D1134A536843F4706353
:100480000EE0144B984204D10F4A536843F4704372
:1004900006E0114B984204D10B4A536843F4702391
:1004A0005360704708000240000002401C000240F8
:1004B0003000024044000240580002406C000240FC
:1004C0008000024008040240000402401C04024074
:1004D0003004024044040240580402400A6A10B545
:1004E0008C68036814430A6923F4FF4314434A6980
:1004F00023F0700314438A691443CA6914434A6A97
:1005000014438A6A224313430360CB6843600B6839
:1005100083604B68C36010BD002303604360836049
:10052000C360036143618361C361036243628362A9
:10053000704719B1036843F0010303E04FF6FE73FF
:10054000026813400360704703680AB1194301E071
:1005500023EA01010160704741607047406880B242
:100560007047C3004CBF044B044B1B68034214BFCD
:1005700001200020704700BF00040240000002403C
:10058000FFF7EFBFC3004CBF014B024B58607047F1
:100590000004024000000240FFF7F4BF044B0022B9
:1005A0001A605A609A60DA60024A5A61704700BF66
:1005B00000040140FFFF0F00827970B501680379E4
:1005C00042B3CE43184A03F18043156803F58233E2
:1005D000354015605468344054601C6821431960EC
:1005E00001689468CD432C409460D3682B40D3605D
:1005F0004379102B06D193680B439360D36819435A
:10060000D16070BD03F1804303F582331A68114352
:10061000196070BD03F1804303F582331A6822EA42
:1006200001021A6070BD00BF0004014000230C22CB
:1006300003600371427183717047024A1369184362
:100640001061704700040140034B5B69034214BF13
:1006500001200020704700BF00040140014B586199
:10066000704700BF00040140054B1A685B690340F6
:1006700004D0024214BF0120002070471846704782
:1006800000040140014B5861704700BF0004014065
:10069000034A136803F0380318431060704700BF23
:1006A00000200240044B1A6822F008021A601A68FF
:1006B00010431860704700BF00200240044B1A68C6
:1006C00022F010021A601A6810431860704700BFC9
:1006D00000200240034B044A5A6002F188325A60FB
:1006E000704700BF0020024023016745FFF7F2BFBB
:1006F000024A136943F080031361704700200240EF
:10070000FFF7F6BF014BD869800870470020024010
:10071000014B186A704700BF00200240024BD869A5
:10072000C0F34000704700BF00200240024B186831
:10073000C0F34010704700BF00200240044B1A690C
:1007400009B1104301E022EA00001861704700BFC0
:10075000002002400128064B03D1D86900F00100B7
:100760007047DB68184214BF01200020704700BFAB
:1007700000200240014BD860704700BF00200240BB
:10078000084BDA68D10709D4DA68520708D4DB6865
:1007900013F0100F14BF032004207047012070478E
:1007A0000220704700200240084BDA68D10709D4C4
:1007B000DA68520708D4DB6813F0100F14BF032067
:1007C000042070470120704702207047002002403B
:1007D00010B50446FFF7E8FF012806D11CB1FFF76A
:1007E000E3FF013CF8E7052010BD002C08BF052001
:1007F00010BD10B54FF43020FFF7EAFF042811D1E7
:10080000094C4FF43020236943F00403236123692A
:1008100043F040032361FFF7DBFF41F6FB732269DE
:100820001340236110BD00BF00200240FFF7E1BF6D
:10083000F8B5134D134B0446AB6003F18833AB603E
:100840004FF400500F461646FFF7C2FF042816D19A
:100850002B6944F0F80443F010032B6147EA0401CC
:10086000094B46EA01025A804FF40050FFF7B0FFEF
:1008700005281FBF41F6EF732A6913402B61F8BDAD
:10088000002002402301674500F8FF1F38B50546E8
:100890004FF43020FFF79CFF042836D11B4C1C4B33
:1008A0004FF43020A36003F18833A360236943F041
:1008B00020032361236943F040032361FFF788FF8E
:1008C00004281BD141F6DF73226913402361236999
:1008D00043F0100323610F4B0DB1002200E0A5226D
:1008E0001A804FF43020FFF773FF05280DD041F632
:1008F000EF73064A11690B40136138BD05281FBF0D
:1009000041F6DF7322691340236138BD00200240A5
:100910002301674500F8FF1F10B504464FF400504F
:10092000FFF756FF042843D1E443224B224AE1B2A9
:100930009A6002F188329A601A69FF2942F0100227
:100940001A6104D1C4F30723FF2B09D110E01B4B1C
:100950004FF400501981FFF73BFF042820D1F1E745
:10096000164A4FF400505381FFF732FF042817D185
:10097000C4F30743FF2B07D0104A4FF40050938174
:10098000FFF726FF04280BD1240EFF2C01D10420F1
:1009900008E00A4BA4B2DC814FF40050FFF718FFC7
:1009A000052805D041F6EF73024A11690B40136127
:1009B00010BD00BF002002402301674500F8FF1F63
:1009C00070B506464FF400500D46FFF701FF0428AE
:1009D00016D10C4C0C4BADB2A36003F18833A3606D
:1009E00023694FF4005043F0100323613580FFF773
:1009F000EFFE05281FBF41F6EF7322691340236104
:100A000070BD00BF002002402301674570B5054658
:100A10004FF400500E46FFF7DBFE04280ED1084CC1
:100A20004FF40050236943F0010323612E80FFF748
:100A3000CFFE41F6FE7322691340236170BD00BFF3
:100A40000020024073B5002306464FF400500D46C7
:100A50000193FFF7BDFE04281AD10E4C4FF400504D
:100A6000236943F001032361ABB23380FFF7B0FE8B
:100A7000042808D102360196019B2D0C1D804FF4ED
:100A80000050FFF7A5FE41F6FE7322691340236173
:100A900002B070BD0020024038B5FFF73FFE0028CD
:100AA0004FF430200CBFA5250025FFF791FE042848
:100AB00029D1154C154B4FF43020A36003F1883336
:100AC000A360236943F020032361236943F04003BB
:100AD0002361FFF77DFE04280ED141F6DF73226902
:100AE0004FF4005013402361236943F01003236146
:100AF000074B1D80FFF76CFE05281FBF41F6EF7303
:100B000022691340236138BD00200240230167455C
:100B100000F8FF1F38B505464FF43020FFF758FEA8
:100B2000042812D1094C4FF43020236943F002030A
:100B300023616561236943F040032361FFF748FEA9
:100B400041F6FD7322691340236138BD0020024045
:100B5000FFF73EBE08B50B4B0121984207D14FF479
:100B6000001000F00DFB00214FF4001006E04FF4E0
:100B7000800000F005FB00214FF48000BDE8084034
:100B800000F0FEBA0054004070B586B00446868876
:100B900001A80D4600F07AFA039A2E4826F03F0687
:100BA000B2FBF0F03604360C81B20E43A6802388E7
:100BB000294E23F001031B041B0C23802B68B34236
:100BC0000AD85B00B2FBF3F301319BB2032B89B26D
:100BD00098BF0423218423E04BF6FF71EE888E42F8
:100BE0001BBF19214B4303EB4303B2FBF3F30BBFD2
:100BF000B2FBF3F39BB29BB243F48043C3F30B020B
:100C00000AB943F001034FF4967101FB00F24FF46F
:100C10007A7192FBF1F2013292B243F400432284E2
:100C2000A3832388A9889BB243F0010323802388F0
:100C30006A8923F4816323F002031B040A431B0C1B
:100C400013439BB22380AA892B8913439BB2238130
:100C500006B070BD40420F00A086010041F288330B
:100C60004BF6FF72036000238380038143814FF4BE
:100C70008043C28083817047038819B19BB243F0DF
:100C8000010303E023F001031B041B0C03807047E6
:100C9000838819B19BB243F4006303E023F400633B
:100CA0001B041B0C83807047838819B19BB243F4EB
:100CB000805303E023F480531B041B0C8380704794
:100CC000038819B19BB243F4807303E023F480736B
:100CD0001B041B0C03807047038819B19BB243F4BB
:100CE000007303E023F400731B041B0C03807047A4
:100CF000038819B19BB243F4806303E023F480635B
:100D00001B041B0C03807047838901F0FE019BB21A
:100D100023F0FE030B4383817047838919B19BB293
:100D200043F0010303E023F001031B041B0C838148
:100D30007047038819B19BB243F0400303E023F0EE
:100D400040031B041B0C0380704783889BB20AB1CD
:100D5000194301E023EA0101818070470182704755
:100D6000008AC0B2704712B141F0010101E001F008
:100D7000FE0189B20182704782B000230193019085
:100D8000019B19440191019B188880B202B0704701
:100D9000038829B16FEA43436FEA53439BB201E0F2
:100DA000C3F30E03038070470388B1F5005F15BFDE
:100DB00023F400539BB21B0443F4005318BF1B0CD5
:100DC00003807047038819B19BB243F4805303E05A
:100DD00023F480531B041B0C038070470388B1F578
:100DE000006F15BF23F400639BB21B0443F4006340
:100DF00018BF1B0C03807047FFF7F0BF038819B1C1
:100E00009BB243F0200303E023F020031B041B0CE0
:100E100003807047008BC0F307207047038819B127
:100E20009BB243F0100303E023F010031B041B0CE0
:100E300003807047038819B99BB243F0800303E035
:100E400023F080031B041B0C03807047838BB1F5D8
:100E5000804F1BBF23F480431B049BB21B0C08BFB5
:100E600043F4804383837047838A008B9BB243EAB9
:100E7000004321F07F4203EA0200431A58425841DE
:100E80007047838A008B9BB243EA004020F07F408A
:100E9000704782B00023009301930B0F01900093E1
:100EA000009B21F07F4113B1019B143302E0019BB1
:100EB000090C18330193019B1B68194214BF0120D0
:100EC000002002B07047C94389B28182704783888D
:100ED000808A9BB280B2084006D003F4E06313EA34
:100EE000114314BF012000207047C94389B2818299
:100EF000704700BF0D4B1A6842F001021A60596832
:100F00000B4A0A405A601A6822F0847222F4803236
:100F10001A601A6822F480221A605A6822F4FE02CB
:100F20005A604FF41F029A60704700BF00100240E1
:100F30000000FFF80C4BB0F5803F1A6822F48032B5
:100F40001A601A6822F480221A6003D0B0F5802F4C
:100F500004D070471A6842F4803202E01A6842F402
:100F6000A0221A60704700BF00100240034A1368B5
:100F700023F0F80343EAC0001060704700100240FD
:100F8000014B1860704700BF00004242034A53689B
:100F900023F47C131943084350607047001002404B
:100FA000014B1860704700BF60004242034A53681B
:100FB00023F0030318435060704700BF0010024045
:100FC000024B586800F00C00704700BF0010024050
:100FD000034A536823F0F00318435060704700BF82
:100FE00000100240034A536823F4E0631843506042
:100FF000704700BF00100240034A536823F4605357
:1010000043EAC0005060704700100240044B1A7859
:1010100009B1104301E022EA00001870704700BFD8
:1010200009100240014B1860704700BFD8004242CF
:10103000034A536823F4404318435060704700BF8D
:1010400000100240064B002201281A701A7002D0CC
:10105000042802D070471870704705221A70704734
:1010600020100240014B1860704700BF80044242CC
:10107000024A136A18431062704700BF0010024012
:10108000014B1860704700BF3C0442421F4A10B534
:10109000536803F00C03042B03D0082B04D01C4B23
:1010A00014E01C4B1B6811E053685168C3F3834381
:1010B000C90303F1020301D4174906E0516811F492
:1010C000003F1449096818BF49084B43036053683F
:1010D0001249C3F30313CC5C0368E34043605468D4
:1010E000C4F302240C5D23FA04F484605468C4F34E
:1010F000C2240C5DE340C3605268C2F381320A44EB
:10110000127CB3FBF2F3036110BD00BF001002407C
:1011100000127A000400002000093D0018000020A1
:10112000044B5A6909B1104301E022EA00005861FA
:10113000704700BF00100240044B9A6909B1104388
:1011400001E022EA00009861704700BF00100240F1
:10115000044BDA6909B1104301E022EA0000D861CA
:10116000704700BF00100240044BDA6809B1104319
:1011700001E022EA0000D860704700BF0010024082
:10118000044B1A6909B1104301E022EA000018611A
:10119000704700BF00100240014B1860704700BF4D
:1011A00040044242014B1860704700BF4C0042426D
:1011B000014B1870704700BF071002404209012A16
:1011C000074B01D11B6803E0022A0CBF1B6A5B6A54
:1011D00000F01F0023FA00F000F00100704700BF8C
:1011E0000010024007B5002301933120FFF7E6FF0E
:1011F000019B01330193019BB3F5A06F01D000283F
:10120000F3D03120FFF7DAFF003018BF012003B020
:101210005DF804FB024A536A43F0807353627047DF
:1012200000100240034B9B68184214BF01200020AD
:10123000704700BF00100240014B1870704700BF9C
:101240000A10024030B5058C25F001052D042D0C47
:101250000584058B048CADB225F0F3052A4342EAE0
:1012600003139AB2104BA4B2984212D003F5006354
:1012700098420ED0B0F1804F0BD0A3F5983398422E
:1012800007D003F58063984203D003F5806398424A
:1012900002D124F0020401E024F00A0444F0010425
:1012A00021430283018430BD002C014030B5048C01
:1012B00024F010042404240C0484058B048C25F4ED
:1012C00040752D052D0D45EA022242EA0333144AEA
:1012D000A4B290429BB212D002F5006290420ED0AE
:1012E000B0F1804F0BD0A2F59832904207D002F5B2
:1012F0008062904203D002F58062904207D124F0D0
:10130000200444F0100444EA011189B204E024F0FE
:10131000A00444F0100421430383018430BD00BFC6
:10132000002C014008B5614B984208D101214FF4CF
:101330000060FFF719FF00214FF40060B1E0B0F149
:10134000804F06D101210846FFF71AFF0021012036
:1013500008E0574B984209D101210220FFF710FF06
:1013600000210220BDE80840FFF70ABF514B984218
:1013700006D101210420FFF703FF00210420F1E73B
:101380004D4B984206D101210820FFF7F9FE0021BC
:101390000820E7E7494B984206D101211020FFF7CA
:1013A000EFFE00211020DDE7454B984206D10121D8
:1013B0002020FFF7E5FE00212020D3E7414B984293
:1013C00008D101214FF40050FFF7CEFE00214FF469
:1013D000005066E03C4B984208D101214FF40020B8
:1013E000FFF7C2FE00214FF400205AE0374B98422D
:1013F00008D101214FF48010FFF7B6FE00214FF411
:1014000080104EE0324B984208D101214FF4001079
:10141000FFF7AAFE00214FF4001042E02D4B984246
:1014200006D101214020FFF7ABFE0021402099E7C3
:10143000294B984206D101218020FFF7A1FE00210F
:1014400080208FE7254B984208D101214FF480700E
:10145000FFF796FE00214FF4807083E7204B9842FF
:1014600008D101214FF48030FFF77EFE00214FF4B8
:10147000803016E01B4B984208D101214FF4003018
:10148000FFF772FE00214FF400300AE0164B98423D
:101490000BD101214FF48020FFF766FE00214FF4AD
:1014A0008020BDE80840FFF75FBE08BD002C01406A
:1014B0000004004000080040000C00400010004004
:1014C0000014004000340140004C01400050014035
:1014D0000054014000180040001C00400020004063
:1014E000004001400044014000480140224A038876
:1014F00090429BB212D002F5006290420ED0B0F141
:10150000804F0BD0A2F59832904207D002F580624E
:10151000904203D002F58062904203D14A8823F0C2
:1015200070031343154A904208D002F5806290423E
:101530001FBF23F44073CA889BB2134303808B8878
:1015400083850B8803850C4B98420FD003F500630D
:1015500098420BD003F54063984207D003F58063AF
:10156000984203D003F58063984201D10B7A038639
:1015700001238382704700BF002C0140001000400F
:10158000038C70B523F001031B041B0C0384028C35
:101590008688038B0D8823F073031B041B0C1D43EB
:1015A00022F002020C894B881204120C23431343CD
:1015B000144AB6B290429BB20FD002F5006290423C
:1015C0000BD002F54062904207D002F58062904253
:1015D00003D002F5806290420ED14C8923F00803BB
:1015E0001C438B8824F0040426F4407223438E8924
:1015F000CC893443224396B2CA888680058382868A
:10160000038470BD002C0140038C30B523F010031F
:101610001B041B0C0384038C8588028B0C8822F42A
:10162000E6421204120C42EA042223F0200394B290
:101630001B040A891B0C43EA02134A88ADB243EA31
:101640000213124A9BB2904203D002F5006290420C
:1016500015D123F080034A899BB243EA02124FF668
:10166000BF7313408A8825F4406543EA02138A89D0
:101670009BB245EA8205CA8945EA8205ADB2CA88AD
:10168000858004830287038430BD00BF002C0140A5
:10169000038C30B523F480731B041B0C0384038C70
:1016A0008488828B0D8822F073021204120C23F4BA
:1016B000007315431B040A891B0C43EA02234A8862
:1016C000A4B243EA0223124A9BB2904203D002F52D
:1016D0000062904215D123F400634A899BB243EA29
:1016E00002224FF6FF3313408A8824F4405443EA21
:1016F00002238A899BB244EA0214CA8944EA02148A
:10170000A4B2CA88848085838287038430BD00BFE9
:10171000002C0140038C30B523F480531B041B0CB8
:101720000384038C8488828B0D8822F4E6421204A1
:10173000120C23F4005342EA05221B040D891B0CF2
:1017400043EA05334D88A4B243EA05330A4D92B209
:10175000A8429BB203D005F50065A84205D18D894A
:1017600024F4804444EA8514A4B284808283CA8825
:10177000A0F84020038430BD002C01400A884B882B
:1017800013438A881343CA8813430A8913434A8937
:1017900013438A8913439BB2A0F8443070474FF635
:1017A000FF73838000230380C380438003727047EC
:1017B0000023038043808380C3800381438183812E
:1017C000C381704700230122038043808280C3804D
:1017D000038170470023038043808380C38003819B
:1017E000438183817047038819B19BB243F00103A1
:1017F00003E023F001031B041B0C03807047B0F8C7
:10180000443029B16FEA43436FEA53439BB201E08E
:10181000C3F30E03A0F844307047818270470A4337
:10182000A0F84820704783899BB20AB1194301E0B0
:1018300023EA010181817047FFF7F5BF038923F097
:1018400007031B041B0C03817047038923F07003FB
:101850001B041B0C1943018103899BB243F007034E
:101860000381704738B50D46602D114604464FF090
:10187000010202D1FFF71AFD01E0FFF7E3FC218925
:1018800021F070010904090C2943218123899BB2AD
:1018900043F00703238138BD10B50489E4B2214326
:1018A0000A4342EA032399B2018110BD10B5FFF744
:1018B000F3FF038923F077031B041B0C43F077032A
:1018C000038110BD10B5FFF7E7FF03899BB243F416
:1018D0008043038110BD018582827047038823F015
:1018E00070031B041B0C194301807047038923F00C
:1018F00070031B041B0C19430181704770B50689E6
:10190000048B058C24F44074ADB224F0030425F05C
:10191000220526F0070624042A433604240C360C3C
:1019200044F4807442EA0313314344F001049DB24D
:1019300001810483058470BD038B23F070031B04B5
:101940001B0C194301837047038B23F4E0431B04F2
:101950001B0C43EA012189B201837047838B23F07A
:1019600070031B041B0C194381837047838B23F482
:10197000E0431B041B0C43EA012189B281837047B9
:10198000038819B19BB243F0800303E023F0800386
:101990001B041B0C03807047838819B19BB243F072
:1019A000040303E023F004031B041B0C8380704733
:1019B000838819B19BB243F0080303E023F00803C6
:1019C0001B041B0C83807047838819B19BB243F0C2
:1019D000010303E023F001031B041B0C8380704709
:1019E000038B23F008031B041B0C1943018370476E
:1019F000038B23F400631B041B0C43EA012189B20F
:101A000001837047838B23F008031B041B0C1943CD
:101A100081837047838B23F400631B041B0C43EA10
:101A2000012189B281837047038B23F004031B04D7
:101A30001B0C194301837047038B23F480631B0441
:101A40001B0C43EA012189B201837047838B23F089
:101A500004031B041B0C194381837047838B23F4FD
:101A600080631B041B0C43EA012189B28183704708
:101A7000038B23F080031B041B0C19430183704765
:101A8000038BC3F30E0343EA012189B2018370473C
:101A9000838B23F080031B041B0C19438183704745
:101AA000838BC3F30E0343EA012189B2818370471C
:101AB000038C23F002031B041B0C194301847047A1
:101AC000038C23F008031B041B0C1943018470478B
:101AD000038C23F020031B041B0C43EA011189B281
:101AE00001847047038C23F080031B041B0C43EA22
:101AF000011189B201847047038C23F400731B0425
:101B00001B0C43EA012189B201847047038C23F442
:101B100000631B041B0C43EA012189B20184704756
:101B2000038C23F400531B041B0C43EA013189B2DC
:101B30000184704730B5048C8A40A5B201248C40E2
:101B400025EA04040484038C13439BB2038430BD50
:101B500030B5048C8A40A5B204248C4025EA0404E4
:101B60000484038C13439BB2038430BD30B5048CD2
:101B700000F11803A5B201248C4025EA0404048472
:101B800021F0080030B94908C85820F07000C8504A
:101B9000C85809E00439C1F34E01C858120220F4B4
:101BA000E040C850C85892B20243CA5030BD0388C2
:101BB00019B19BB243F0020303E023F002031B04BC
:101BC0001B0C03807047038819B19BB243F00403D8
:101BD00003E023F004031B041B0C0380704783887D
:101BE00019B19BB243F0800303E023F080031B0490
:101BF0001B0C83807047038823F008031B041B0C15
:101C0000038003889BB2194301807047838823F0C7
:101C100070031B041B0C838083889BB21943818053
:101C20007047038923F007031B041B0C03810389FE
:101C30009BB2194301817047038923F080031B0481
:101C40001B0C038103899BB2194301817047818476
:101C5000704781857047818670470187704781870B
:101C60007047A0F840107047038B23F00C031B044F
:101C70001B0C0383038B9BB2194301837047038BB7
:101C800023F440631B041B0C0383038B9BB243EAC6
:101C9000012189B201837047F8B50C464988A288B2
:101CA0000029B4F800E00CBF02260026012A0CBF70
:101CB000022701272389BEF1000F0ED1FFF7C2FAD8
:101CC000E188FFF7D1FF314623893A46FFF7EEFA64
:101CD000E188BDE8F840FFF7D2BFFFF7E7FAE188F7
:101CE000FFF7CDFF314623893A46FFF7ABFAE1888B
:101CF000BDE8F840FFF7B8BF838B23F00C031B044B
:101D00001B0C8383838B9BB2194381837047838B26
:101D100023F440631B041B0C8383838B9BB243EA35
:101D2000012189B281837047F8B50E880D460B8971
:101D30008A880446498836B9FFF784FAE988BDE8FD
:101D4000F840FFF791BF042E06D1FFF7AFFAE988FC
:101D5000BDE8F840FFF793BF082EEF88008C39D11B
:101D600020F480700004000C2084A68B208CB6B276
:101D700026F0F30646EA03139BB21A43354B80B2B2
:101D80009C4212D003F500639C420ED0B4F1804F08
:101D90000BD0A3F598339C4207D003F580639C4297
:101DA00003D003F580639C4207D120F4007040EA21
:101DB000012080B240F4807004E020F4206341F4FC
:101DC00080701843A283394620842046BDE8F8403D
:101DD000FFF792BF20F480500004000C2084A68BF3
:101DE000B4F820E026F440752D052D0D45EA0225B6
:101DF000184A45EA033394421FFA8EFE9BB212D072
:101E000002F5006294420ED0B4F1804F0BD0A2F5DF
:101E10009832944207D002F58062944203D002F5D2
:101E20008062944207D12EF4005040EA013080B223
:101E300040F4805006E047F6FF5241F480500EEA2D
:101E400002021043A383394620842046BDE8F840AF
:101E5000FFF75DBF002C0140038823F440731B048F
:101E60001B0C038003889BB2194301807047808E4E
:101E700080B27047008F80B27047808F80B2704709
:101E8000B0F8400080B27047808C80B27047008DFF
:101E900080B27047038A194214BF012000207047A6
:101EA000C94389B201827047038A828911EA03001B
:101EB00092B203D0114214BF012000207047C943E1
:101EC00089B20182704700BF08B5214B98420BD1FF
:101ED00001214FF48040FFF747F9BDE80840002199
:101EE0004FF48040FFF740B91A4B984208D10121C6
:101EF0004FF40030FFF744F900214FF4003022E0A6
:101F0000154B984208D101214FF48020FFF738F992
:101F100000214FF4802016E0104B984208D1012197
:101F20004FF40020FFF72CF900214FF400200AE0C5
:101F30000B4B98420BD101214FF48010FFF720F991
:101F400000214FF48010BDE80840FFF719B908BD23
:101F5000003801400044004000480040004C004070
:101F60000050004070B50E460446038ACA889BB2F2
:101F700023F440531343038282898988338992B2C0
:101F80000B43718922F4B0520B4322F00C0213432D
:101F90009BB28381838AB2899BB223F4407386B05B
:101FA0001343838201A8FFF771F8174A039B049D2E
:101FB0003168944218BF1D4619226A43A3896426DA
:101FC00013F4004F14BF4D008D00B2FBF5F5B5FBC7
:101FD000F6F0A28900010109120406FB115307D58E
:101FE000D9003231B1FBF6F202F00702104306E0ED
:101FF0001A013232B2FBF6F303F00F03184380B23A
:10200000208106B070BD00BF003801404FF4165368
:1020100003600C2200238380C3800381428183817B
:1020200070474B8810B50C88028A23438C88C98876
:1020300092B223430B4322F4706213439BB2038298
:1020400010BD0023038043808380C3807047838951
:1020500019B19BB243F4005303E023F400531B0473
:102060001B0C83817047012310B5C1F342149C42BD
:1020700001F01F0103FA01F101D10C3003E0022C41
:102080000CBF1030143003680AB1194301E023EA91
:102090000101016010BD838A9BB20AB1194301E0BE
:1020A00023EA010181827047038A23F00F031B0496
:1020B0001B0C0382038A9BB21943018270478389F8
:1020C00023F400631B041B0C838183899BB2194397
:1020D00081817047838919B19BB243F0020303E009
:1020E00023F002031B041B0C83817047038A23F037
:1020F00020031B041B0C0382038A9BB21943018239
:102100007047038A19B19BB243F4804303E023F480
:1021100080431B041B0C03827047C1F308018180BC
:1021200070478088C0F30800704783899BB243F0F2
:10213000010383817047038BDBB20383038B9BB264
:1021400043EA012101837047038B03F47F43038338
:10215000038B9BB2194301837047838A19B19BB2E9
:1021600043F0200303E023F020031B041B0C8382B5
:102170007047838A19B19BB243F0100303E023F048
:1021800010031B041B0C83827047838A19B19BB216
:1021900043F0080303E023F008031B041B0C8382B5
:1021A0007047838929B16FEA43436FEA53439BB277
:1021B00001E0C3F30E0383817047838A19B19BB298
:1021C00043F4006303E023F400631B041B0C8382CD
:1021D0007047838A23F004031B041B0C8382838AC9
:1021E0009BB2194381827047838A19B19BB243F035
:1021F000020303E023F002031B041B0C83827047DD
:102200000388194214BF012000207047C94389B2D6
:1022100001807047012310B5C1F3421401F01F0281
:102220009C4203FA02F201D1838903E0022C0CBF25
:10223000038A838A9BB21340028892B243B101237E
:10224000090A03FA01F10A4214BF1846002010BD22
:10225000184610BD090A012303FA01F1C94389B2E6
:102260000180704708B505F0E7FF01F082FE02F03B
:102270002FFF00F0F1FF02F0F3F903F0E1F803F0B3
:102280009FFA02F056F900F08DF9BDE8084000F021
:10229000E7BB08B503F0D2FA60B100F05FFC00F0D4
:1022A000ABFA02F06BFA05F0D7FF094B1B6BC01AB3
:1022B000084B186005F0D0FF01F00EFE01F0D0F9D8
:1022C00001F060FF03F086F9BDE8084001F0F6BFB9
:1022D00038350020983500200A88504080EA0010E8
:1022E000C0B2030983EA122343EA002383EAC00051
:1022F000088070472DE9F74F044608460D4607F061
:10230000FBF967A3D3E9002307F0DAFC18B9684B9F
:102310001B78DB0701D40025A562E36862681868B2
:10232000116807F069FD8046207802F007FF01463A
:10233000404607F06BFEA6788146662E43D8A36818
:10234000002B37D10021284608F01CF800283AD08D
:10235000E16A084607F052FD01468346284607F029
:102360004DFD6768616A8246386807F045FD514651
:1023700001904FF0804007F0FDFE019B014618469A
:1023800007F044FE29460190584607F035FD5146B6
:1023900007F0F0FEA16A07F039FE019B01461846DE
:1023A00007F02CFDA0623B683046636202F0C6FE77
:1023B000A16A04E0304602F0C1FEA368196807F084
:1023C00025FE074600E000276678662E02D94FF00A
:1023D000000826E0364B1B78012BF8D1354BD86925
:1023E00007F08AF930A3D3E9002307F069FC00283D
:1023F000EDD0304602F0A2FE002107F0C3FF002816
:10240000E5D04146284607F001FE0146E06907F0A5
:10241000F5FCE061607802F091FEE16907F0F6FDFD
:1024200080464946404607F0E9FC394607F0E4FC9F
:1024300065690646294607F0A5FF58B9A5693046E3
:10244000294607F081FF28B93146304607F072FF70
:102450003546F0B94946304607F0CEFC394607F01C
:10246000CDFC28F0004820F00041404607F08AFFEC
:1024700078B14946284607F0BFFC394607F0BEFC54
:102480000646607802F05AFE0146304607F072FEBA
:10249000E06123691D6003B0BDE8F08FAFF30080F9
:1024A0007B14AE47E17A843F9A9999999999B93FFB
:1024B0009D350020A0350020013938B5451E44184F
:1024C000A54205D015F8011F002000F041FFF7E7F5
:1024D00038BD70B5042390B08DF80C30014628B992
:1024E00032220DF10D0009F0A3FA0FE003460DF1C1
:1024F0000D0200F130051C4603CCAC421060516067
:10250000234602F10802F6D123881380FE23234AD2
:102510008DF8043033238DF80530937920498DF8F8
:102520000630013393714FF6FF730878497810AD88
:102530008DF80810FD218DF807008DF8091025F899
:102540003E3D00240134062C05D001AB2946185D20
:10255000FFF7C2FEF6E7002403AE305D29460134E2
:10256000FFF7BAFE332CF7D129465320FFF7B4FE0C
:10257000BDF8023001A88DF8003006211B0A8DF845
:102580000130FFF799FF21463046FFF795FF022102
:102590006846FFF791FF10B070BD00BF40180020E3
:1025A000703500202DE9F74F0C2002F0C7FD0546DD
:1025B0000C2002F0C3FD8C4C8C4E1923DFF83482C2
:1025C0008B4F84F830301A23A6F10C0984F831308F
:1025D00065641B23002500F1004084F832306663F7
:1025E000C4F838902764C4F83C80A064E56405F022
:1025F00033FE07F09FF87AA3D3E9002307F0D0F861
:1026000007F0A6FB20652420A565656502F096FD10
:10261000E0650C2002F092FD01900C2002F08EFD8E
:102620001D2284F860203B1D1E2284F86120236750
:102630001F22019BA6F1080B08F1080A84F862200A
:1026400000F10040321D62666367C4F86CA0C4F8F4
:1026500068B0A067E56705F0FFFD07F06BF860A3C1
:10266000D3E9002307F09CF807F072FBC4F8800060
:102670002420C4F88850C4F8845002F05FFDC4F8E8
:102680008C000C2002F05AFD01900C2002F056FD47
:102690000D22019B84F890200E2284F89120C4F82A
:1026A00094900F224FF0000900F1004084F892202E
:1026B000C4F8A430C4F8A070C4F89890C4F89C8002
:1026C000C4F8A800C4F8AC5005F0C6FD07F032F815
:1026D00043A3D3E9002307F063F807F039FBC4F8FC
:1026E000B0002420C4F8B850C4F8B45002F026FD5D
:1026F000C4F8BC000C2002F021FD01900C2002F077
:102700001DFD3B1D112284F8C020C4F8D0301222D8
:10271000019B84F8C12000F10040132284F8C220FC
:10272000C4F8D430C4F8CCA0C4F8C4B0C4F8C8907D
:10273000C4F8D800C4F8DC5005F08EFD06F0FAFFAE
:1027400027A3D3E9002307F02BF807F001FBC4F817
:10275000E0002420C4F8E850C4F8E45002F0EEFC95
:10276000C4F8EC000C2002F0E9FC82460C2002F0D8
:10277000E5FC152384F8F030162384F8F130172394
:1027800084F8F230043E08F11003083700F10040ED
:10279000C4F8FC30C4F8F460C4F8F890C4F80071D0
:1027A000C4F804A1C4F80801C4F80C5105F054FDA4
:1027B00006F0C0FF0AA3D3E9002306F0F1FF07F0FB
:1027C000C7FAC4F810012420C4F81851C4F81451F1
:1027D00002F0B4FCC4F81C0103B0BDE8F08F00BFE8
:1027E0008DEDB5A0F7C6B03E40180020543500204E
:1027F00028360020A4350020F8B53D4FD7F82041F9
:10280000204606F079FF36A3D3E9002307F03AFA11
:10281000384B68B1D3E90C0106F08CFF32A3D3E941
:10282000002306F0BDFF07F093FAC7F82001F8BDBA
:10283000D3E90C0106F07EFF2BA3D3E9002306F0B9
:10284000AFFF07F085FA0546214607F0D5FAC7F82D
:102850002051294D06466B78284C1BB9014607F1DB
:10286000900004E0012B05D1014607F13000FFF78D
:1028700041FD01E06B6863606B7A13B93146204813
:1028800003E0012B04D131461E48FFF733FD02E07F
:10289000194BDB68A3606B7C23B931461A48FFF7FC
:1028A00029FD02E0144B5B69E360212002F046FC45
:1028B0000146606807F0A2FA6060222002F03EFC48
:1028C0000146A06807F09AFAA060232002F036FCC7
:1028D0000146E06807F092FAEB69E0602360F8BD1A
:1028E00048AFBC9AF2D77A3E8DEDB5A0F7C6B03EA0
:1028F0004018002038350020A03500202436002064
:1029000000190020A01800203019002010B52B4B12
:102910008EB01B78DB0748D4294901A802F044FD9A
:1029200001A8FFF7D6FD0024264B4FF07E5221462A
:1029300021201C615C619C611A605C609C60DC60B1
:1029400002F02CFC2146222002F028FC2146232004
:1029500002F024FC1C4B1D4A03F1080492E803001A
:1029600083E8030002F1080103C984E80300184C5E
:102970001033103292E8030083E80300FFF73CFFB6
:102980006168212002F00AFCA168222002F006FC06
:10299000E168232002F002FC0E4901A802F004FDC8
:1029A00001A8FFF796FD0C4900E00C4901A802F0D0
:1029B000FBFC01A8FFF78DFD0EB010BD9D3500207A
:1029C0003CC1000838350020A0350020C03500206B
:1029D0002436002061C1000888C10008B2C1000887
:1029E000174A00234FF07E51116053609360D3600B
:1029F000136153619361D36113625362114A116091
:102A00001164114953609360D36013615361936102
:102A1000D361136253629362D3621363536393630C
:102A2000D36353649364D364136553659165D3652D
:102A300013665366054A137823F008031370704732
:102A400038350020681900200AE81CC19C35002098
:102A5000024B00229A62DA621A63704768190020FA
:102A6000034B00200021C3E91A01FFF7B9BF00BFE3
:102A7000681900202DE9F041332002F05FFB054684
:102A800001464FF07E5007F0B7F9314E07463168E6
:102A900007F0BCFA2F4C8046216D284607F0B6FAA5
:102AA0000146404607F0AAF971682065384607F0EC
:102AB000ADFA616D8046284607F0A8FA0146404607
:102AC00007F09CF9B1686065384607F09FFAA16D80
:102AD0000646284607F09AFA0146304607F08EF976
:102AE000A065322002F02AFB054601464FF07E50D9
:102AF00007F082F9184E0746316807F087FAE16D52
:102B00008046284607F082FA0146404607F076F9EB
:102B10007168E065384607F079FA216E80462846EC
:102B200007F074FA0146404607F068F9B16820667C
:102B3000384607F06BFA616E0646284607F066FADB
:102B40000146304607F05AF96066BDE8F08100BFE3
:102B50007436002068190020943600202DE9F04FCB
:102B6000A04BADB0D3E91A0150EA010298469E4F3E
:102B700006D1D7E90C01C3E91A01C3E91C0141E3FD
:102B8000D7E90C45A94208BFA04200F03B838D4223
:102B900008BF8442954A06D21178C3E91A4541F02C
:102BA000100111702EE31378201A23F01003137014
:102BB00065EB010107F0E4F98D4907F027FA07906A
:102BC0002B20C8E91A4502F0B1FA4FF47A7380FB62
:102BD0000301884BD3E900238B4208BF82424FF0A8
:102BE0002C000DD202F0AAFA834907F00FFAC8F8B8
:102BF00078002D2002F0A2FA7F4907F007FA06E0DC
:102C000002F09CFAC8F878002D2002F097FAC8F874
:102C10007C00FFF72FFF3020D8F850B0D8F8549040
:102C2000D8F858A002F082FA6E4C21AE0025002898
:102C300000F082805946584607F0E8F94946834635
:102C4000484607F0E3F90146584607F0D7F85146E1
:102C50008146504607F0DAF90146484607F0CEF8BB
:102C60006649814607F070FB002865D064494846F4
:102C700007F088FB00285FD0D7E90C23C4E91C23A8
:102C800004F150030ECB304606F03EFA5D4B28AF00
:102C900093E807008DE80700384696E80E0006F036
:102CA000AEFA2B9B0DF19009009397E80E00484671
:102CB00006F027F894E80F000DF1040E8EE80F00DF
:102CC000279B0EAF009399E80E00384605F076FF7B
:102CD00097E80F0004F1400E8EE80F004FF04041DE
:102CE000206C07F093F9616C074607F08FF9A16C2F
:102CF00082466063384607F089F9D4F87C9007462D
:102D0000A0634946E563504607F080F9079907F04C
:102D10007DF90146A06A07F06FF84946A06238467F
:102D200007F074F9079907F071F90146E06A07F0B6
:102D300063F82563E06205E0C8F83450C8F83850FD
:102D4000C8F83C502E2002F0F1F92F4C0AAD0028B3
:102D500062D0D8F824300DF1480A0093A4F1400362
:102D60000CCB5046294905F0BCFED8F81830A4F128
:102D70004C070DF1540B009397E80C00244958467A
:102D800005F0AFFE9BE807008DE807000DF1600934
:102D90009AE80E00484605F0C1FED8F864300DF1FF
:102DA0006C0A009394E80C001A49504605F099FE0D
:102DB0009AE807008DE80700284699E80E0005F01C
:102DC000ADFE95E8070004F1240383E8070097E8C7
:102DD0000700643B83E8070094E8070087E80700E2
:102DE00020E000BF68190020383500209C35002005
:102DF000BD3786358836002000002041E45EFE4263
:102E00005AF78A42CCBA0008C4190020ABAAAABD5E
:102E1000ABAA2A3F5555D53E04F1240394E8070098
:102E200083E80700864C1EAF04F1280393E80700EF
:102E30008DE8070004F180030ECB384605F087FECD
:102E4000D8F83C303046009304F134030CCBD8F86A
:102E5000781005F046FE96E807008DE80700284642
:102E600097E80E0005F05AFE95E8070004F18C0380
:102E700083E8070005F084FE0021064607F082FA89
:102E8000002800F07D81D4F88C302F200693D4F8F0
:102E900090B0D4F8945002F049F9002800F0D280A4
:102EA000304606F029FC07F0A3FB06F051FF8146EF
:102EB0000146079807F0AAF84FF07C5107F0A6F8F2
:102EC00006F01AFC06460F4607F002FB06F040FF2C
:102ED00039460890304607F043FB06460F464FF050
:102EE0007E50494607F046F906F006FC32463B465E
:102EF00006F056FC06F02CFFE36866680793069B15
:102F00008246314603F1004007F080F8D4F808907B
:102F100009904946584607F079F8099B014618463A
:102F200006F06AFF07990990284607F06FF8099B99
:102F30000146184606F060FF514607F067F827681B
:102F400009903946089807F061F8099B0146184630
:102F500006F054FF39462490069807F057F8494682
:102F60000990284607F052F8099B0146184606F0DA
:102F700045FF07990990584607F048F8099B014614
:102F8000184606F039FF514607F040F831460990DF
:102F9000089807F03BF8099B0146184606F02EFFFB
:102FA00039462590584607F031F8314609902846B1
:102FB00007F02CF8099B0146184606F01DFF0799FB
:102FC0000990069807F022F8099B0146184606F07A
:102FD00015FF514607F01AF849460990089807F07E
:102FE00015F8099B0146184606F008FF3946269059
:102FF000284607F00BF831460546584607F006F814
:103000000146284606F0FAFE49460546069806F0AF
:10301000FDFF0146284606F0EFFE514606F0F6FF9A
:1030200007990546089806F0F1FF0146284606F084
:10303000E5FE2790279B0EAD009324AB0ECB98E0C6
:1030400068190020D4F80490069B494603F100401B
:1030500006F0DCFFA76808903946584606F0D6FF10
:10306000089B0146184606F0C7FEE6680890314600
:10307000284606F0CBFF089B0146184606F0BCFE2A
:10308000D4F800A04FF07C5106F0C0FF079906F07D
:10309000BDFF514606F0B2FE51462060069806F08C
:1030A000B5FF39460890284606F0B0FF089B014658
:1030B000184606F0A3FE31460890584606F0A6FFD3
:1030C000089B0146184606F097FE4FF07C5106F02B
:1030D0009DFF079906F09AFF494606F08FFE51467C
:1030E0006060584606F092FF49460890284606F070
:1030F0008DFF089B0146184606F07EFE314608907B
:10310000069806F083FF089B0146184606F076FEF7
:103110004FF07C5106F07AFF079906F077FF3946A9
:1031200006F06CFE5146A060284606F06FFF494647
:103130000546584606F06AFF0146284606F05EFE40
:1031400039460546069806F061FF0146284606F016
:1031500053FE4FF07C5106F059FF079906F056FFD9
:10316000314606F04BFEE060E3680EAD009394E854
:103170000E00284605F0FCFF95E80F0084E80F00DC
:1031800098E80F00214C224E84E80F0004F124033C
:10319000029304F12003019304F11C03009394E8CB
:1031A0000F0005F0C8FD06F1280393E807008DE83D
:1031B00007000AAD06F15C030ECB284605F0C7FCFC
:1031C00095E8070004F1100383E80700302001F0C0
:1031D000ADFF104B1A7890B106F17007D7E9006780
:1031E00004F13005D5E900450B48002180197941EB
:1031F000A94208BFA04202D242F0080201E022F038
:1032000008021A702DB0BDE8F08F00BF38350020DD
:10321000681900209C35002020A107000A88504032
:1032200080EA0010C0B2030983EA122343EA0023B4
:1032300083EAC0000880704770B50446054E451803
:10324000AC4206D0337813B1207805F017F801347A
:10325000F6E770BD001A0020F0B500209FB001F025
:1032600065FF04F0FDFF012001F060FF344CFA23FC
:103270006370344B207000210020C3E9000100225C
:10328000314904A802F090F804238DF844300DF180
:10329000450204AB10AE1D4603CDB542106051602F
:1032A0002B4602F10802F6D12B881EAD1380274A67
:1032B000FE238DF8083033238DF80930137A164633
:1032C0008DF80A30013313724FF6FF73217825F819
:1032D000723D8DF80B10617800248DF80C10FD21E3
:1032E0008DF80D100134062C05D002AB2946185D6F
:1032F000FFF794FFF6E7002411AF385D294601344B
:10330000FFF78CFF332CF7D129465320FFF786FFB8
:10331000BDF8063002A88DF8043006211B0A8DF88E
:103320000530FFF789FF21463846FFF785FF022168
:1033300001A8FFF781FF012333701FB0F0BD00BF6C
:103340007035002090350020EBC10008001A0020E5
:1033500028B9034B1B7813B1084604F08FBF7047A0
:10336000001A00200A88504080EA0010C0B2030909
:1033700083EA122343EA002383EAC00008807047EF
:10338000013938B5451E4418A54205D015F8011F6E
:103390000020FFF7DDFFF7E738BD70B566288AB07B
:1033A00005466ED801F0DAFE18B1012869D1092668
:1033B00000E00626284601F0C9FE0446284601F032
:1033C000BDFE67230390ADF81030ADF812508DF8B4
:1033D00024602CB91022214605A808F029FB0BE037
:1033E000234605AA04F110051446186859680833E5
:1033F00003C4AB422246F7D1FE23234A8DF80430A2
:1034000019238DF80530937920498DF80630013362
:1034100093714FF6FF73087849780AAD8DF808105C
:1034200016218DF807008DF8091025F8263D002497
:103430000134062C05D001AB2946185DFFF792FF39
:10344000F6E7002403AE305D29460134FFF78AFF1A
:10345000192CF7D12946DC20FFF784FFBDF8023094
:1034600006218DF8003001A81B0A8DF80130FFF706
:1034700087FF21463046FFF783FF02216846FFF7AA
:103480007FFF0AB070BD00BF321A002070350020E7
:10349000014B00221A7070472C00002030B587B015
:1034A00000F1080301AA00F11804154618685968CC
:1034B000083303C5A3422A46F7D1186828600120C3
:1034C0009DF8064001F032FEC0B284420CD1BDF935
:1034D0000400002803DA02A801F00CFE00E0C0B2EC
:1034E000662801D8FFF759FF07B030BD30B587B067
:1034F0006A4600F1080300F1180415461868596877
:10350000083303C5A3422A46F7D118682860998872
:103510009B790120A980AB719DF8044001F006FE63
:10352000C0B2844221D10DF1060001F0E3FD66280E
:1035300004461AD89DF81630062B04D0092B0CBF70
:103540000125022500E00025204601F007FE854206
:103550000BD135B1012D08D10099204601F01EFE96
:1035600003E00099204601F001FE07B030BD10B520
:10357000044C2078662804D8FFF70FFF2378013326
:10358000237010BD2C0000200A88504080EA0010F3
:10359000C0B2030983EA122343EA002383EAC0008E
:1035A00008807047013938B5451E4418A54205D03A
:1035B00015F8011F0020FFF7CBFEF7E738BD2DE916
:1035C000F04385B015468DF80920234A9846FE231E
:1035D0008DF8083093790F468DF80A3001339371D6
:1035E0004FF6FF731D498DF80D000C7849788DF862
:1035F0000B4004AC8DF80C1024F80A3D002601366F
:10360000062E05D002AB2146985DFFF7BDFFF6E719
:10361000B946AEB23D44A945214604D019F8010B84
:10362000FFF7B2FFF7E74046FFF7AEFFBDF8063001
:1036300002A88DF8043006211B0A8DF80530FFF72B
:10364000B1FF31463846FFF7ADFF022101A8FFF771
:10365000A9FF05B0BDE8F083621A00207035002094
:103660002DE9F043B44E9DB03446B04604F00EFE52
:10367000002800F0168204F011FEF27800230746BD
:1036800033700A2A7ED8DFE802F0060617271F2EBD
:10369000354251646400FE2840F001820223E37049
:1036A000002384F833304FF0FF3384F8320084F87D
:1036B000303084F8313065E0237184F833009F495D
:1036C000FFF762FF042305E084F834009B49FFF70D
:1036D0005BFF0323E37055E084F835009749FFF75B
:1036E00053FF0523F6E784F836009449FFF74CFFB3
:1036F0000623EFE784F837009049FFF745FF94F879
:1037000033300BB90823E5E70723F3703AE0237958
:103710008A495A1C2344227183F83800FFF734FF8A
:10372000227994F833309A422CD1EBE794F8373071
:10373000834A8249D05CFFF727FF238EDBB29F428A
:1037400014BF0A230923F3702379234483F83870C4
:1037500018E00A2A04D0228E83B2B3EB122F02D0D3
:103760000223237001E0012333700123E3702379E6
:103770007249234483F839704FF4887201F58860E8
:1037800005F0E0FD2378012B07D196F83420727103
:10379000328902B9728101322281617994F8332031
:1037A000013184F8732484F88515E278218984F83E
:1037B0008325A4F888152279A1780025022B84F8A6
:1037C0008425A4F88A15A57019D1324492F83910CD
:1037D00092F83820FE2F42EA0122A6F870244FF01A
:1037E0000102B270357040F05881F3704FF0FF3332
:1037F00086F8335086F8303086F8313036E7002BC3
:103800003FF434AF94F87734172B00F0908008D849
:10381000142B00F08880152B7FF428AFFFF738FEBB
:1038200024E7B42B0ED0BC2B00F098806F2B7FF4D4
:103830001DAF04F011FD434B05468E466F4603F164
:10384000100C0AE104F008FD3F4D404B2A46C3E945
:1038500000013C4B03F1100E2F46186859680833DD
:1038600003C773453D46F7D11B88394D3B8013682C
:103870006B605368EB6093686B61D368EB61537C5A
:1038800003F0010181F00101297083F00201C1F30D
:103890004001297283F0040183F00803C3F3C003DD
:1038A0002B76137CC1F38001012B297419D011D31D
:1038B000022B34D101226A706A721C2000226A74C1
:1038C0006B7601F03BFC0146686806F097FA686089
:1038D000202015E003236B706B726B7402236B76F0
:1038E0001DE000236B706B726B74102002236B76EB
:1038F00001F024FC0146686806F080FA6860142034
:1039000001F01CFC0146E86806F078FAE86018202F
:1039100001F014FC0146686906F070FA68610D4B0D
:1039200001221A70A2E60C48FFF7B8FD9EE60A488D
:10393000FFF7DCFD9AE600BF621A0020921A002011
:10394000D8BA0008DA1E0020783500209035002013
:10395000E4350020E0350020D21E0020524B98F8BC
:1039600078941B78012B0BD0B9F10A0F3ED8DFE811
:1039700009F02115181B1E0A0D125C0624000125F2
:103980000027284654E001F0FBFA01E001F01EFB9D
:1039900000252F464CE000F0F7FF23E002F0E2FAAA
:1039A000F6E702F0C9FAF3E704F0D0FD1AE004F0FC
:1039B000DDFD17E0FEF7AAFF14E00EAA17463B4B09
:1039C00003F1300E154618685968083303C573456E
:1039D0002A46F7D11B8832222B8039468623C02005
:1039E000FFF7EDFD00252F46012021E04A46304932
:1039F000684601F0D9FC03238DF838306B460DF191
:103A000039020CAF1D4603CDBD42106051602B46FC
:103A100002F10802F6D12B880EA91380FD20532352
:103A20003322FFF7CCFD0025AAE701273846002501
:103A30008DF83900712302220EA9BD208DF838902F
:103A4000FFF7BDFD17B9002D3FF410AE142004F0B0
:103A500005FC284604F0FCFB08E63A46186859685D
:103A6000083303C263451746F7D1DDE9002313434A
:103A70007FF4FCAD4FF47A73A5FB030103FB0E1139
:103A8000DDE90223CDE90E01CDE910230EA92223A1
:103A900010226F20FFF793FDE8E5F270E6E523784A
:103AA0007BE61DB0BDE8F0839D350020F5C1000820
:103AB00008C200080A88504080EA0010C0B203091A
:103AC00083EA122343EA002383EAC0000880704798
:103AD000FFF74DBD013938B5451E4418A54205D044
:103AE00015F8011F0020FFF733FCF7E738BD2DE97B
:103AF000F04385B015468DF80920234A9846FE23E9
:103B00008DF8083093790F468DF80A3001339371A0
:103B10004FF6FF731D498DF80D000C7849788DF82C
:103B20000B4004AC8DF80C1024F80A3D0026013639
:103B3000062E05D002AB2146985DFFF7BBFFF6E7E6
:103B4000B946AEB23D44A945214604D019F8010B4F
:103B5000FFF7B0FFF7E74046FFF7ACFFBDF80630D0
:103B600002A88DF8043006211B0A8DF80530FFF7F6
:103B7000B1FF31463846FFF7ADFF022101A8FFF73C
:103B8000A9FF05B0BDE8F083EE1F002070350020CE
:103B90001FB504F099FC60B1074BB62059689A68CC
:103BA0001B68029101930392DA230C2201A9FFF70B
:103BB0009EFF05B05DF804FB543600201FB504F0ED
:103BC000EBFC70B1084B0C221B6801A901934FF06C
:103BD000824302934FF07A530393BB206423FFF791
:103BE00086FF05B05DF804FB3C3600201FB504F0ED
:103BF00097FC70B1084B09491A68094B09681B68A2
:103C00000191029203930C22CE2301A9B720FFF762
:103C10006EFF05B05DF804FB6436002040360020DE
:103C2000443600201FB504F093FC70B1084B0949DD
:103C30001A68094B09681B680191029203930C22D0
:103C4000A92301A9B820FFF752FF05B05DF804FBD6
:103C5000803600203836002090360020F0B5174B13
:103C60008BB01B78F3B9164B1649D3F800E05F68A8
:103C70009E68154BD1E900011D685C689A68134B7A
:103C8000CDE900011B68079208932422432369466B
:103C9000B520CDF808E00397049605950694FFF744
:103CA00026FF08E00A4B9A6CD3E91401801A61F1EF
:103CB0000001C3E914010BB0F0BD00BF982900203A
:103CC00074360020883600209436002060360020AC
:103CD000300000201FB5622001F028FA002814BF30
:103CE000012302238DF80830032300208DF80C30C7
:103CF0000922322301A901908DF809008DF80A00EC
:103D00008DF80B00FFF7F3FE05B05DF804FBF0B58E
:103D100089B004F09FFA0C4B00901F685E689D68A4
:103D2000DC6819695A699B690591069207932022FC
:103D3000F62369461F200197029603950494FFF726
:103D4000D6FE09B0F0BD00BF383500202DE9F04F98
:103D50008DB004F07FFA8346002004F052FC8246C6
:103D6000012004F04EFC8146022004F04AFC80460B
:103D7000032004F046FC0746042004F042FC0646FB
:103D8000052004F03EFC0546062004F03AFC0446FB
:103D9000072004F036FC00230822ADF81600ADF829
:103DA0001830ADF81A30ADF81C30ADF81E30ADF853
:103DB0002030ADF82230ADF82430ADF82630ADF823
:103DC0002830ADF82A208DF82C308DF82D302A229D
:103DD000762301A94120CDF804B0ADF808A0ADF8D4
:103DE0000A90ADF80C80ADF80E70ADF81060ADF82B
:103DF0001250ADF81440FFF77AFE0DB0BDE8F08F19
:103E000030B58BB004F026FA094D002302AC0193C3
:103E100000900FCD0FC495E80F0084E80F00E62353
:103E200028226946BE20FFF762FE0BB030BD00BFFE
:103E3000043600207FB500238DF80730234B9DF812
:103E400007201B7803F001010A438DF807209DF835
:103E5000072003F0020313438DF8073000F01CFA2B
:103E60009DF80730002814BF0422002213438DF868
:103E7000073000F017FA9DF80730002814BF082219
:103E80000022134362208DF8073001F04FF9104BE8
:103E9000002814BF002502251E789DF8074004F075
:103EA000A4FB0C4BADF808001B88E4B2ADF80A3057
:103EB0000722872302A9BF208DF80C408DF80D60E2
:103EC0008DF80E50FFF713FE04B070BD9D35002035
:103ED0009C35002098350020F8B506460F460B4C5F
:103EE00004F5847554E902239F4208BF964208D323
:103EF00054F8101C521843F1000344E902232368CC
:103F000098471834AC42EDD1F8BD00BF4000002006
:103F100011B1044BB3FBF1F118235843024B195074
:103F2000704700BF40420F00300000201823584364
:103F3000014B1950704700BF300000200A885040E4
:103F400080EA0010C0B2030983EA122343EA002387
:103F500083EAC00008807047013938B5451E44180F
:103F6000A54205D015F8011F0020FFF7F1F9F7E78A
:103F700038BD034A00231370024A1370704700BF14
:103F80009D3500209C35002070B5494B9EB01A78B5
:103F9000002A5BD0474904A801F006FA03238DF8F4
:103FA00044300DF1450204AB10AD1C4603CCAC42CD
:103FB00010605160234602F10802F6D123883E4981
:103FC0001380FE233D4A8DF8083033238DF80930E5
:103FD000937908788DF80A30013393714FF6FF73A7
:103FE00049781EAD8DF80C10FD218DF80B008DF871
:103FF0000D1025F8723D00240134062C05D002ABCB
:104000002946185DFFF79AFFF6E7002411AE305DF0
:1040100029460134FFF792FF332CF7D1294653206C
:10402000FFF78CFFBDF8063002A88DF8043006219A
:104030001B0A8DF80530FFF78FFF21463046FFF74A
:104040008BFF022101A8FFF787FF16E0312001F066
:104050006DF8F8B1194D95F830402E464CB9184B13
:104060001B78D80705D401F067FF012385F83030AD
:104070001AE001F08FFF044608B9002414E0104A4A
:10408000002386F83030137843F00103137004F0F6
:10409000E3FA09E00A4A1378D907EED443F00103A2
:1040A000137004F0D9FA012420461EB070BD00BF81
:1040B0009C35002025C200087035002020200020FB
:1040C0009D350020034A137823F00103137004F098
:1040D000C9BA00BF9D350020F8B504F096FA20B9A2
:1040E0000446054640F6340712E0234A137843F0AD
:1040F0000403137016E0E6B2304604F082FAB0F51D
:10410000617F0CD3304604F07CFAB84207D8013402
:10411000532001F00BF863B28342ECDB01E0012590
:10412000F5E7ADB1154C94F83130192B04D904F0F2
:104130009FFA002384F8313094F83130104A01336B
:1041400084F831301378012543F00203137010E036
:104150000B4B1A7822F00201197007490B7823F0F3
:1041600004030B70D30702D504F076FA01E004F0E3
:1041700079FA2846F8BD00BF9C3500202020002099
:104180009D350020F8B504F065F8414C636BC61A04
:10419000132E79D96063FFF79FFF0746002861D18E
:1041A00001F010FA054600285ED13A4B03201B7837
:1041B000DA072CD401F0F6F90546662000F0BEFFC0
:1041C0000146284606F0C0F898B1022001F0EAF94D
:1041D0000546662000F0B2FF01464FF07E5005F024
:1041E0000BFE0146284606F0CDF810B1A36B334410
:1041F00000E00023A363A36BB3F5FA7F32D9FFF786
:10420000C3FE054670B3224B00229A633DE001F0E5
:10421000C9F90546662000F091FF0146284606F0E0
:1042200093F8A0B1022001F0BDF90546662000F028
:1042300085FF01464FF07E5005F0DEFD00F10041A4
:10424000284606F081F810B1A36B334400E0002348
:10425000A363A36BB3F5FA7F04D9FFF733FF0C4BCD
:1042600000229A63012510E0384601F0A3F90446C4
:1042700038B1084B1B78DB07F4D4FFF785FE2546E1
:1042800003E0FFF71FFF00E000252846F8BD00BF50
:10429000202000209D350020014B1878704700BF7A
:1042A0005C200020044A0023D1184968087810B91E
:1042B0000C33302BF8D1704738010020854B2DE9A5
:1042C000F74F1B78844E03F0020303F0FF006BB13D
:1042D000272000F033FF814C814DE06430340FCC57
:1042E0000FC594E80F0085E80F00ECE03378002B51
:1042F00000F0EC8001F056F97A4C6060012001F08A
:1043000051F9E060022001F04DF96061032001F0F5
:1043100049F9E061622000F009FF254620B103233E
:1043200063706372637438E0032001F04BF918B1D5
:10433000032001F03FF905E05B2000F0F7FE0030BC
:1043400018BF01200128674C6870687209D05E2090
:1043500000F0F4FE0146606805F058FE60605F20E2
:1043600008E05C2000F0EAFE0146606805F04EFEC1
:1043700060605D2000F0E2FE0146E06805F046FE68
:104380000023E06060206B7400F0D8FE014668698D
:1043900005F03CFE022368616B7603F05DFF524B33
:1043A000524AD3E90045002312196B418B4208BFE2
:1043B000824205D24E4B00221A761A701A721A7473
:1043C00000252F464B4CDFF8308104F148090120CD
:1043D00001F0F8F878B903F03DFF09EB050ADAF8C7
:1043E00004308346C31A5920019300F09FFE019BBD
:1043F000834217D304E0012001F0DCF890B9EAE72A
:1044000019F8050001F0CEF80190582000F096FE52
:10441000019B014623F00043184605F0B3FF30B17D
:10442000CAF804B04FF0010388F8003006E054F8F1
:10443000043C1B78002BF5D088F8000098F8002089
:10444000236812B154F8081C01E054F8041C083524
:10445000182D03C947EA020783E8030004F10C049E
:10446000B5D1022001F0AEF81C4D20B9AB6A1B4C4F
:104470001B782BB106E0022001F09CF80028F5D053
:10448000012310E05A2000F051FE58B1636AA26A7D
:10449000586851684FF0010405F056FF00B9044612
:1044A000E3B200E003460D49EA6A0BB1496A00E055
:1044B000896A03C982E8030007B913B104F0B7F8A9
:1044C00001E004F0BBF8002333700123184603B069
:1044D000BDE8F08F9D350020E03500203801002038
:1044E000A0350020C035002090350020A0860100B6
:1044F000E4350020400100205C2000200A88504064
:1045000080EA0010C0B2030983EA122343EA0023C1
:1045100083EAC00008807047013938B5451E441849
:10452000A54205D015F8011F0020FEF711FFF7E79F
:1045300038BDF0B5434C9FB02378612023F00103D0
:10454000237000F0F3FDC0B2042860D900223E4978
:1045500004A800F029FF03238DF844300DF1450233
:1045600004AB10AE1D4603CDB542106051602B4622
:1045700002F10802F6D12B8834491380FE23344A15
:104580008DF8083033238DF80930937908788DF849
:104590000A30013393714FF6FF7349781EAE8DF8E0
:1045A0000C10FD218DF80B008DF80D1026F8723DD2
:1045B00000250135062D05D002AB3146585DFFF7C9
:1045C0009DFFF6E7002511AF785D31460135FFF715
:1045D00095FF332DF7D131465320FFF78FFFBDF8FC
:1045E000063006218DF8043002A81B0A8DF805302C
:1045F000FFF792FF29463846FFF78EFF01A80221F8
:10460000FFF78AFF2378002043F001032370114B4A
:104610000F4A53F82030104C13630020002302F19E
:10462000340144F8230041F823000133082B4FF0F4
:104630000002F6D1094B1A605A609A60DA601FB026
:10464000F0BD00BF9C35002048C200087035002036
:1046500060200020D8BB000804360020243600204B
:1046600038B54A2000F062FD0446252000F05EFDCA
:104670000546292000F05AFD631E82B2584229B235
:104680005841BDE8384003F0B2BF244B70B51B78E9
:104690000546DB070C461BD54FF07E51204605F042
:1046A00071FEB8B9262000F049FD0146204605F00C
:1046B0004BFE40B12A2000F039FD20B1262000F049
:1046C0003DFD044608E00021204605F03DFE18B1FE
:1046D000002401E04FF07E54114B282043F8254080
:1046E00000F024FD0646292000F020FD301A05F0D8
:1046F00039FC214605F08AFC0446292000F016FD0D
:1047000005F030FC214605F079FB05F045FE81B24D
:104710002846BDE8704003F076BF00BF9D350020FD
:104720000436002038B50C4605464FF07E51204631
:1047300005F028FE30B90D49204605F005FE18B1F8
:104740000A4C01E04FF07E54094B0A4943F82540DA
:10475000204605F05BFC084905F050FB05F042FEE1
:1047600081B22846BDE8384003F04DBF000080BF4D
:10477000043600200000FA430080BB442DE9F04FCE
:10478000622085B000F0D2FC514C60B3642000F090
:10479000CDFC002814BF4FF0FF30012005F0E2FBF4
:1047A0000146606805F032FC6060632000F0BEFCEA
:1047B000002814BF4FF0FF30012005F0D3FB014665
:1047C000A06805F023FCA060652000F0AFFC002885
:1047D00014BF4FF0FF30012005F0C4FB0146E06834
:1047E00005F014FCE0603B4D22682B6BD4F804808C
:1047F000D4F80890D4F80CA0019203F10804002624
:104800004FF07E5705F1340B9A5D002A2CD02168B9
:104810000198039305F0FAFB216A0290404605F0E7
:10482000F5FB029A0146104605F0E8FA216C029069
:10483000484605F0EBFB029A0146104605F0DEFA09
:10484000216E0290504605F0E1FB029A01461046A7
:1048500005F0D4FA39464BF82600029005F092FD97
:10486000039B08B1029A17460136082E04F104048E
:10487000CAD14FF07E51384605F084FD30B139463B
:104880004FF07E5005F076FC074601E04FF07E5772
:10489000114E00242B6B1B5D012B05D156F8241003
:1048A000E0B2FFF73FFF0CE0022B0AD156F82410CC
:1048B000384605F0ABFB014646F82400E0B2FFF7AE
:1048C000E4FE0134082CE5D105B0BDE8F08F00BF4F
:1048D0002436002060200020942000200D4B002072
:1048E00003F5CE7213F8011B934280EA0100F9D15F
:1048F00003F5CE6213F8011B934280EA0100F9D15F
:1049000003F1670213F8011B934280EA0100F9D119
:10491000704700BFBC200020F0B50B4604460B4D8D
:1049200001F1100E05EB001606F5D2763746186831
:104930005968083303C773453E46F7D1A31C45F8B1
:1049400023202C44002384F81438F0BDB420002028
:10495000F0B50B4604460B4D01F1100E05EB0016A9
:1049600006F5D276374618685968083303C7734589
:104970003E46F7D1A31C45F823202C44012384F89C
:104980001438F0BDB42000202DE9F0414FF461222D
:10499000BD490020FFF7C0FF01221046BB49FFF7C9
:1049A000BBFF0122BA490220FFF7B6FF0A22B9492C
:1049B0000320FFF7B1FF6422B7490420FFF7ACFFE3
:1049C0004FF4FA72B5490520FFF7A6FF4B22B44910
:1049D0000620FFF7A1FF6422B2490720FFF79CFFE2
:1049E0001422B1490820FFF797FF2822AF49092078
:1049F000FFF792FF3222AE490A204FF07E55FFF7B3
:104A00008BFFAC4E3222AC490B20FFF785FF2A46C4
:104A1000AA490C200024FFF79BFF3246A8490D202D
:104A2000FFF796FF2246A7490E20FFF791FF224687
:104A3000A5490F20FFF78CFF2246A4491020FFF75D
:104A400087FF3246A2491120FFF782FF2246A14983
:104A50001220FFF77DFF22469F491320FFF778FFC2
:104A600022469E491420FFF773FF4FF07A529C496B
:104A70001520FFF76DFF22469A491620FFF768FFC1
:104A8000994F224699491720FFF762FF224698491D
:104A90001820FFF75DFF3A4696491920FFF758FFA7
:104AA000224695491A20FFF753FF324693491B20AF
:104AB000FFF74EFF224692491C20FFF749FF3A4676
:104AC00090491D20FFF744FF22468F491E20FFF723
:104AD0003FFF32468D491F20FFF73AFF22468C499F
:104AE0002020FFF735FF22468A492120FFF730FFBB
:104AF000224689492220FFF72BFF2246874923209F
:104B0000FFF726FF864E874A87492420FFF720FFBC
:104B10004FF4F57285492520FFF7FEFE32468449A1
:104B20002620FFF715FF834A83492720FFF710FF50
:104B30004FF47A7281492920FFF7EEFE4FF4FA62B2
:104B40007F492820FFF7E8FE01227E492A20FFF74F
:104B5000E3FE40F6B8327C492B20FFF7DDFE2A4603
:104B60007A492C20FFF7F4FE324679492D20FFF7D1
:104B7000EFFE002277492E20FFF7CEFEDFF84082BD
:104B8000002275492F20FFF7C7FE0122734930200C
:104B9000FFF7C2FE424672493220FFF7D9FE424675
:104BA00070493320FFF7D4FE2A466F493420FFF7BF
:104BB000CFFE00226D493120FFF7AEFE22466C4940
:104BC0003520FFF7C5FE22466A493620FFF7C0FEB2
:104BD000224669493720FFF7BBFE22466749382045
:104BE000FFF7B6FE224666493920FFF7B1FE22469E
:104BF00064493A20FFF7ACFE224663493B20FFF7A9
:104C0000A7FE224661493C20FFF7A2FE22466049EA
:104C10003D20FFF79DFE2A465E493E20FFF798FEA5
:104C200022465D493F20FFF793FE22465B49402024
:104C3000FFF78EFE22465A494120FFF789FE2A4699
:104C400058494220FFF784FE224657494320FFF788
:104C50007FFE224655494420FFF77AFE22465449FA
:104C60004520FFF775FE2A4652494620FFF770FEA1
:104C7000224651494720FFF76BFE22464F49482004
:104C8000FFF766FE22469DE05DC2000867C200088D
:104C90006EC2000879C2000885C2000893C20008ED
:104CA0009CC20008A5C20008AFC20008BDC200082F
:104CB000C8C20008295C8F3DD4C20008DCC20008CD
:104CC000EAC20008FAC200080AC300081AC30008B2
:104CD00029C300083AC300084BC300085CC300089E
:104CE0006CC300087BC300089A99193E8AC3000868
:104CF00099C30008A7C30008B6C30008C5C30008CD
:104D0000D4C30008DEC30008EEC30008FEC30008D9
:104D10000EC4000819C4000825C4000831C40008E6
:104D2000CDCCCC3DCDCC4C3D3DC4000845C40008A5
:104D300056C400089A99993E65C4000872C40008D8
:104D400080C400088EC400089EC40008ACC40008DB
:104D5000B6C40008C0C40008D0C40008DFC40008FE
:104D6000EEC40008FDC400080BC5000817C5000804
:104D700027C5000833C500083FC500084BC500081B
:104D800056C5000861C500086CC500087CC5000850
:104D90008CC500089CC50008A9C50008B6C5000858
:104DA000C3C50008D0C50008DDC50008EAC5000875
:104DB000F7C5000804C6000811C600081CC6000894
:104DC000F853633F4D494920FFF7C2FD01224C498A
:104DD0004A20FFF7A1FD00224A494B20FFF79CFD26
:104DE000012249494C20FFF797FD032247494D20F6
:104DF000FFF792FD022246494E20FFF78DFD042267
:104E000044494F20FFF788FD042243495020FFF713
:104E100083FD4FF0FF3241495120FFF77DFD4FF0F8
:104E2000FF323F495220FFF777FD06223D495320CC
:104E3000FFF772FD01223C495420FFF76DFD01226E
:104E40003A495520FFF768FD012239495620FFF7FE
:104E500063FD012237495720FFF75EFD3246364990
:104E60005820FFF775FD4FF47A7234495920FFF747
:104E700053FD334C002233495A20FFF74DFD0122E8
:104E800031495B20FFF748FD224630495C20FFF79F
:104E90005FFD22462E4C2F495D20FFF759FD22462B
:104EA0002D495E20FFF754FD22462C495F20FFF775
:104EB0004FFD2B4A2B496020FFF74AFDFF222A496C
:104EC0006120FFF729FD002228496220FFF724FD19
:104ED000002227496320FFF71FFD00222549642097
:104EE000FFF71AFD002224496520FFF715FD3A4619
:104EF000BDE8F041214966202AE500BF27C6000829
:104F000032C600083AC6000843C600084CC600086E
:104F100055C600085EC600086EC600087EC60008BA
:104F20008EC600089AC60008A5C60008B2C60008CA
:104F3000BFC60008CCC60008D9C60008E5C60008F0
:104F40004C37493FF3C6000800C700080CC70008EB
:104F5000D00F494018C7000825C7000835C700080A
:104F600060E5C03F46C7000855C700085BC700089A
:104F700066C7000873C700087BC7000886C700081B
:104F800010B50F4C4FF40861204603F04CFBB0B154
:104F900022680C4B9A4211D163680B4A23F07F437D
:104FA00093420BD194F87B38EF2B07D1FFF796FC97
:104FB00094F87C381B1A5842584110BD002010BD8F
:104FC000B420002051EA9DE58008BE0038B50A4CA7
:104FD0000A4B4FF408652360BE23A371EF23A5801D
:104FE00084F87B38FFF77AFC294684F87C08204651
:104FF000BDE8384003F019BBB420002051EA9DE51C
:105000000A2852D015D805283BD00AD802282BD020
:1050100002D8012823D07047032829D004282CD097
:105020007047072839D03CD308282ED0092830D023
:10503000704752280CD84B2843D225283DD002D89F
:105040000B2836D07047292837D04A2835D07047EA
:10505000542838D3572834D9612830D070471A4B98
:10506000DA681A4B1A707047174B0020196902E072
:10507000154B01205969FEF74BBF134B022099696C
:10508000F9E7114B0320D969F5E70F4B0420996A22
:10509000F1E70D4B0620D96AEDE70B4B0520596A65
:1050A000E9E7094B0720196AE5E7074B0820196B68
:1050B000E1E7054B0920596BDDE7FFF7D1BAFFF7B0
:1050C00038BA00F0BDB97047B42000207035002018
:1050D00010B503F0A6FAFFF753FF18B9FFF754FC19
:1050E000FFF774FF0024E0B20134FFF789FF672C5B
:1050F000F9D110BDF0B50C4D002300F10F0605EB02
:105100000312411E02F2A31211F8017F12F8014F9F
:10511000BC4204D10CB1B142F6D1D8B2F0BD0133DA
:10512000672BECD11846F0BDB4200020024B0230B2
:1051300053F82000704700BFB4200020024B02301B
:1051400053F82000704700BFB4200020024B03EB4F
:10515000001000F5D2707047B4200020024B1844B4
:1051600090F81408704700BFB4200020662838B5B6
:1051700004460ED8084B821C53F82250A94208D08E
:1051800043F82210FFF73CFF2046FEF706F9012006
:1051900038BD002038BD00BFB4200020FFF7E6BFB7
:1051A00010B50C46FFF7A6FF2146BDE81040FFF7FB
:1051B000DDBFFFF7F5BF00BFF0B50124B0FBF4F58C
:1051C0008D4201D34C43F9E70026CCB1B0FBF4F596
:1051D00004FB1500B4FBF1F41EB9002D01DC002C1A
:1051E000F3D1092D03F1010E04DD002A14BF372786
:1051F000572700E030273D441D7001367346E4E731
:105200001C70F0BD2DE9F041069D002B06460F46AF
:105210002B4614BF4FF030084FF0200813F8011B45
:1052200009B9144603E0002A08DD013AF6E7002C2C
:1052300004DD41463046B847013CF8E715F8011B4C
:1052400011B13046B847F9E7BDE8F08103685A1C50
:105250000260197070472DE9F04F074688461546E1
:105260001C4687B00DF10C092978002900F08180D7
:10527000252901D0013579E06978002630290CBF55
:10528000A9780235A1F1300312BF4FF0000A0335AF
:105290004FF0010A092B19D8A1F13003DAB2092A1B
:1052A00005D80A2202FB063615F8011BF4E7A1F126
:1052B0006103052B02D8A1F1570305E0A1F14103D9
:1052C000052B03D8A1F137030A2BEADD63293BD074
:1052D00006D825294AD0582922D0002949D0C3E729
:1052E000732937D011D86429BED1206804F1040B8A
:1052F0000028BFBF2D238DF80C3040420DF10D0367
:10530000A8BF4B4600220A2112E0752902D0782955
:1053100006D0A9E704F1040B4B4600220A2106E05F
:105320004B4658394A424A4104F1040B1021206887
:10533000FFF742FFCDF800905346324641463846CB
:10534000FFF760FF5C468FE72178261D3846C0478F
:10535000344689E7236804F1040A009332460023A7
:1053600041463846FFF74EFF54467DE73846C04772
:105370007AE707B0BDE8F08F014B196058607047BD
:10538000342900200FB407B5064804AB53F8042BAA
:10539000016840680193FFF75EFF03B05DF804EB1E
:1053A00004B07047342900200EB40FB505AB53F894
:1053B000042B0190064901A80393FFF74CFF019BC2
:1053C00000221A7004B05DF804EB03B0704700BF10
:1053D0004D5200080A88504080EA0010C0B203090C
:1053E00083EA122343EA002383EAC000088070475F
:1053F000013938B5451E4418A54205D015F8011FDE
:105400000020FDF7A5FFF7E738BD38B54B20FFF7C3
:105410008DFE0A4C0025207065704C20FFF786FE3B
:10542000E570A0704D20FFF781FE657120714E2060
:10543000FFF77CFE0123A071E37138BD3C290020F9
:105440002DE9F0479EB0FFF7E0FF5220FFF76EFE18
:10545000514DDFF84C8128724F20FFF767FEE8724C
:105460005020FFF763FEA8735120FFF75FFE05F1A0
:105470000A04687405F1160714F8026C032E07D9A4
:105480005320FFF753FE8642ACBF0020012000E00E
:1054900000202070002860D114F8022C3F4904A895
:1054A000FFF782FF03238DF844300DF1450204AB72
:1054B0000DF1400E1E4603CE764510605160334616
:1054C00002F10802F6D133880DF178091380FE232A
:1054D0008DF8083033238DF80930AB7E98F8002022
:1054E0008DF80A300133AB764FF6FF738DF80B2041
:1054F00098F8012029F8723D8DF80C20FD228DF8D6
:105500000D2000260136062E05D002AB4946985DD7
:10551000FFF760FFF6E700260DF1440A1AF80600CF
:1055200049460136FFF756FF332EF5D14946532041
:10553000FFF750FFBDF8063006218DF8043002A8B1
:105540001B0A8DF80530FFF753FF31465046FFF731
:105550004FFF022101A8FFF74BFF012304F8013C94
:1055600014F8023C043B032B0ED8DFE803F00204DE
:105570000608542004E0552002E0562000E05720A1
:10558000FFF7D4FD04F8010C0334A7427FF474AF95
:105590001EB0BDE8F08700BF3C29002094C700087A
:1055A00070350020024B03EB8000406C704700BF59
:1055B0003C290020024B184490F85400704700BF6B
:1055C0003C290020024B00EB40001844807A7047D1
:1055D0003C2900202DE9F04102F03CFE2A4DAB6D44
:1055E000C31A132B4CD9A865002405F14406285D85
:1055F00003F007F82B195B783BB1A0F57A7004F043
:10560000B1FC224904F0B6FD0AE0A0F2DC504000F3
:1056100004F060F800221E4B04F0ECF904F098FB53
:1056200046F814000234082CE1D140F2397740F2F8
:105630007D48184C04F14A0504F10C062378A3B107
:1056400014F9013C14F8020C002B06DA02F0D9FF21
:1056500040458CBF0020012005E002F0D2FFB84297
:1056600094BF00200120287000E02B700334B44266
:1056700005F10105E2D1084B01201870BDE8F08169
:105680000020BDE8F08100BF3C29002000007A44E2
:1056900000408F4046290020E03500200A88504015
:1056A00080EA0010C0B2030983EA122343EA002310
:1056B00083EAC0000880704708B502F0CDFD044BB6
:1056C0000022C3E90001034B1A7001225A7008BD81
:1056D0008836002098290020013938B5451E441825
:1056E000A54205D015F8011F0020FDF731FEF7E7B0
:1056F00038BD70B590B08DF80C000A4629B9322239
:105700000DF10D0006F094F90EE00DF10D0301F11D
:105710003005144603CCAC4218605960224603F1B0
:105720000803F6D122881A80FE23234A8DF804301C
:1057300033238DF80530137A20498DF80630013374
:1057400013724FF6FF730878497810AD8DF8081082
:10575000FD218DF807008DF8091025F83E3D002445
:105760000134062C05D001AB2946185DFFF796FFE2
:10577000F6E7002403AE305D29460134FFF78EFFC3
:10578000332CF7D129465320FFF788FFBDF80230AC
:1057900001A88DF8003006211B0A8DF80130FFF7B3
:1057A0009BFF21463046FFF797FF02216846FFF72F
:1057B00093FF10B070BD00BF982900207035002005
:1057C00010B51C4C237823F00203237002F06CFD0B
:1057D000194802F09BFD3820FFF7B0FC002104F0CF
:1057E000A9FD30B33920FFF7A9FC002104F0A2FD88
:1057F000F8B13A20FFF7A2FC002104F09BFDC0B1F4
:105800003520FFF79BFC002104F094FD88B1362081
:10581000FFF794FC002104F08DFD50B13720FFF715
:105820008DFC002104F086FD18B1237843F020039D
:10583000237010BD9C350020B95600082DE9F04FAB
:10584000A94CAFB06778002F00F07C82A74DDFF83D
:10585000C8922B78A64E23F002032B7002F0FAFCBC
:10586000A44B6063DFF8B482D3E90001A24B4A463F
:10587000C3E90C013146404602F056FD0795074644
:10588000CDF8189008B9002777E200233420637020
:10589000D8F80090FFF752FC0146484604F0B6FBEA
:1058A000964DD8F8049028603420FFF747FC014655
:1058B000484604F0ABFB68603420D8F80880FFF756
:1058C0003DFC0146404604F0A1FB8D4B3268A860C8
:1058D0001A6072685A60B2689A6094F83830002B87
:1058E00000F06D8195E807008DE807000DF16C0967
:1058F00004F13C0696E80E00484603F00FF9814B90
:105900000DF1280893E807008DE80700404699E864
:105910000E0003F003F998E80700069B86E80700ED
:105920001968A06C04F06AFA774BD5F800B01A68D1
:10593000D3F80490D3F80880AB68A06459461046A9
:105940000992059304F01EFDD5F804A00896099A63
:1059500008B95E4600E016465146484604F012FD7E
:1059600008B9534600E04B4605994046099304F0B8
:1059700009FD099B08B9DDF81480DFF88C915846C1
:10598000C9F80430D9F80C30C9F80060C9F80880AB
:105990001946099304F0F6FCD9F81080D9F8146080
:1059A000099B00B19B464146504604F0EBFC00B118
:1059B000C2463146059804F0E5FC00B9059EB4F8EE
:1059C0004C30C9F80CB001339BB2B3F57A7FC9F8FB
:1059D00010A0C9F81460DFF81081A4F84C3040F230
:1059E000EE803B20FFF7AAFB0F903C20FFF7A6FBC1
:1059F00010903D20FFF7A2FB1190B8F84C0004F086
:105A0000ADFA01464FF07E5004F0B4FB8346119B83
:105A100018AE00930FAB0CCB3046D8F8481003F00B
:105A200060F896E807008DE80700089B0DF1540A1E
:105A30000ECB504603F08BF8179B1EAE00939AE8EE
:105A40000C005946304603F04CF82F4B0DF1480A34
:105A50000C3393E807008DE807000C3B0ECB504653
:105A600003F075F89AE8070003F029FB4FF07E5128
:105A700004F088FC814660B10022244921A8FFF788
:105A800093FC21A90320FFF734FE002388F8383067
:105A900084E096E8070003F012FB1D4904F054FC73
:105AA000824600283CD01E993820FFF777FB1F99CB
:105AB0003920FFF773FB20993A20FFF76FFB079B14
:105AC000079A1B78134923F02003137021A84A4634
:105AD000FFF76AFC21A90620FFF70BFEFCF780FF09
